:10015300E4FDFC7F0112008F1200F28F19E5196094
:10016300F77F647E00120177E519FD7C007F0112A1
:04017300008F80E495
:10019900EF1FAC0670011E4C600A7D027CEFDCFE8D
:0401A900DDFC80EC0D
:0101AD00222F
:1000F200E4F51A20B1137F14FE12019930B1FD7F8D
:10010200147E00120199751A0120B0147F147E002A
:1001120012019930B0FD7F147E00120199751A0206
:1001220020B2147F147E0012019930B2FD7F147E3A
:1001320000120199751A0320B3147F147E00120174
:100142009930B3FD7F147E00120199751A04AF1A1B
:01015200228A
:1001AE0011083F065B4F666D7D077F6F777C395E6A
:0301BE0079710054
:10008F00EF14B4080050549000A475F003A4C58376
:10009F0025F0C583730200BC0200C00200C4020039
:1000AF00C80200CC0200D40200DC0200E4D2A4801B
:1000BF000ED2A48012D2A48016D2A4801AC2A4D2C7
:1000CF00A3D2A28016C2A4D2A3C2A2800EC2A4C27F
:1000DF00A3D2A28006C2A4C2A3C2A274082DF8E6BE
:0300EF00F5802277
:0501C200007FF7DFFEE5
:0101C7002215
:04017700AD07AC061E
:10017B00E4FBFAED25E0FFEC33FEC3EB9FEA9E5068
:0D018B000CB2951201C20BBB00010A80E608
:010198002244
:03000000020003F8
:0C000300787FE4F6D8FD75811A02004AEF
:10000F00020153E493A3F8E493A34003F68001F2B3
:10001F0008DFF48029E493A3F85407240CC8C333F2
:10002F00C4540F4420C8834004F456800146F6DFC1
:10003F00E4800B01020408102040809001AEE47EA2
:10004F00019360BCA3FF543F30E509541FFEE493B6
:10005F00A360010ECF54C025E060A840B8E493A37D
:10006F00FAE493A3F8E493A3C8C582C8CAC583CAA8
:10007F00F0A3C8C582C8CAC583CADFE9DEE780BE60
:0101C100003D
:00000001FF
