:03091B00010800D0
:1008D300E4FDFCC3ED9FEC9E5015E4FBFA0BBB005B
:0F08E300010AEB64784A70F50DBD00010C80E44A
:0108F20022E3
:050916001208F380FE51
:0300230002088C44
:10088C00C0E0C0F0C083C082C0D075D000C000C032
:10089C0001C002C003C004C005C006C00730980CDC
:1008AC00E599F4F5A0AF9912090EC298D007D006BD
:1008BC00D005D004D003D002D001D000D0D0D0824B
:0708CC00D083D0F0D0E03230
:1008F30075985043878053890F438920758BF3750F
:0B0903008DF3C2ABD28ED2AFD2AC227B
:08090E008F993099FDC2992276
:03000000020800F3
:0C080000787FE4F6D8FD758108020847F7
:10080C00020916E493A3F8E493A34003F68001F2E3
:10081C0008DFF48029E493A3F85407240CC8C333ED
:10082C00C4540F4420C8834004F456800146F6DFBC
:10083C00E4800B010204081020408090091BE47E28
:10084C00019360BCA3FF543F30E509541FFEE493B1
:10085C00A360010ECF54C025E060A840B8E493A378
:10086C00FAE493A3F8E493A3C8C582C8CAC583CAA3
:10087C00F0A3C8C582C8CAC583CADFE9DEE780BE5B
:01091E0000D8
:00000001FF
