:10080000E4F5087590FFC2932097137F14FE120C35
:100810002C3097FD7F147E00120C2C750801209659
:10082000147F147E00120C2C3096FD7F147E001273
:100830000C2C7508052095147F147E00120C2C30AA
:1008400095FD7F147E00120C2C7508092094147FEE
:10085000147E00120C2C3094FD7F147E00120C2CA0
:1008600075080D7590FFC2922097147F147E0012B8
:100870000C2C3097FD7F147E00120C2C7508022082
:1008800096147F147E00120C2C3096FD7F147E008F
:10089000120C2C7508062095147F147E00120C2C67
:1008A0003095FD7F147E00120C2C75080A209414DC
:1008B0007F147E00120C2C3094FD7F147E00120CED
:1008C0002C75080E7590FFC2912097147F147E003E
:1008D000120C2C3097FD7F147E00120C2C7508032F
:1008E0002096147F147E00120C2C3096FD7F147E0F
:1008F00000120C2C7508072095147F147E00120C32
:100900002C3095FD7F147E00120C2C75080B209462
:10091000147F147E00120C2C3094FD7F147E001284
:100920000C2C75080F7590FFC2902097147F147ED1
:1009300000120C2C3097FD7F147E00120C2C7508D1
:10094000042096147F147E00120C2C3096FD7F1428
:100950007E00120C2C7508082095147F147E00125E
:100960000C2C3095FD7F147E00120C2C75080C2089
:1009700094147F147E00120C2C3094FD7F147E00A2
:08098000120C2C750810AF08E1
:01098800224C
:100C2C00EF1FAC0670011E4C600A7D027CEFDCFEEF
:040C3C00DDFC80EC6F
:010C40002291
:060C5500C2A58F80D2A7AA
:080C5B007F027EEFDEFEDFFCEC
:010C6300226E
:0A0C7D00C2A6120C55C2A7020C5BC0
:100BDB00CFCDCFCECCCE120A857C007D0A120A85F2
:040BEB00ED2430FFC6
:0A0BEF00D2A6120C55C2A7020C5B3F
:100C1600AE07BE0104ED148006BE0209ED243F4472
:060C260080FF120C7D228C
:100C41007F38120C7D7F0C120C7D7F06120C7D7F8C
:040C510001020C7D13
:0A0C8700AC03120C16AF04020BEFD1
:060BB8008B088A09890A7E
:100BBE00120C16E4FDAB08AA09A90A8D82758300F2
:0C0BCE00120A46FF6006120BEF0D80E9D2
:010BDA0022F8
:0C0B85007F0AEA24FFFDE434FFFC7E0040
:080B91008E0D8F0E8C0F8D10EC
:100B99007F017E00E4FBEBC39510E50F6480F874D8
:0E0BA9008098500AAC0DAD0E120A730B80E856
:010BB700221B
:040BF9008A0A8B0BCE
:100BFD00120C16AA0CEAD39400400D120B85AC0A08
:080C0D00AD0B120BDB1A80EDA8
:010C150022BC
:100ADA00120C16C3EA64809480400B7F2B120BEF32
:100AEA008A168B17800E7F2D120BEFC3E49BF51726
:100AFA00E49AF516AA15EAD39400400D120B85ACB8
:090B0A0016AD17120BDB1A80ED89
:010B130022BF
:040B14008A1A8B1B93
:100B1800120C16AA1CEAD3940040297F10120B87E6
:100B2800AC1AAD1BCFCDCFCECCCE120A85EF540F69
:100B3800FEC3940AEE5004243080022437FF120BBF
:040B4800EF1A80D14F
:010B4C002286
:040B4D008A1F8B2050
:100B5100120C16AA21EAD394004028EA24FFFDE4EE
:100B610034FFFC7F027E00120B91AC1FAD20CFCD74
:100B7100CFCECCCE120A85EF54012430FF120BEFF9
:030B81001A80D205
:010B8400224E
:0D0C6400454C4F4F004F4B200045525200B1
:10098900120C417BFF7A0C79647D017F01120BB84F
:100999001208008F26E5266046D3940A5033C3E532
:1009A900239404E52294005020AE24AF257C007DD9
:1009B9000A120A738E248F25E52675F00A84E5F05C
:1009C9002525F525E43524F5240523E523700205BD
:1009D90022750C04AB25AA247D017F02120BF9E5CF
:1009E90026640B7036E525B4290DE524B409087B86
:1009F900FF7A0C796980067BFF7A0C796D7D0E7F11
:100A090001120BB8E4F524F525F522F523750C043C
:100A1900AB25AA247D017F02120BF9E526640C603F
:100A290003020999F524F525F522F523750C04AB84
:0D0A390025AA247D017F02120BF902099904
:03000000020C717E
:0C0C7100787FE4F6D8FD75812602098921
:100A4600BB010CE58229F582E5833AF583E0225065
:100A560006E92582F8E622BBFE06E92582F8E222AF
:0D0A6600E58229F582E5833AF583E49322C9
:100A7300EF8DF0A4A8F0CF8CF0A428CE8DF0A42E97
:020A8300FE2251
:100A8500BC000BBE0029EF8DF084FFADF022E4CC55
:100A9500F875F008EF2FFFEE33FEEC33FCEE9DEC1E
:100AA500984005FCEE9DFE0FD5F0E9E4CEFD22ED64
:100AB500F8F5F0EE8420D21CFEADF075F008EF2FAE
:100AC500FFED33FD4007985006D5F0F222C398FD9F
:050AD5000FD5F0EA223C
:00000001FF
