:090AED00436C6F636B3A003A00A0
:10089400120AAA120A687BFF7A0A79ED7D017F01A8
:1008A400120A0AE51AB43C05051CE4F51AE51CB461
:1008B4003C05051BE4F51CE51BFB7A00750C027D69
:1008C400017F02120A4B7BFF7A0A79F47D037F02CF
:1008D400120A0AE51CFB7A00750C027D047F0212E1
:1008E4000A4B7BFF7A0A79F47D067F02120A0AE535
:1008F4001AFB7A00750C027D077F02120A4B80A353
:03000B000209E205
:0409E200C0E0C0D0E1
:1009E600758A18758CFC0519E51970020518C394EB
:0F09F600E8E51894034008751800751900051AF4
:050A0500D0D0D0E0326A
:100A9500EF1FAC0670011E4C600A7D027CEFDCFE88
:040AA500DDFC80EC08
:010AA900222A
:060ABE00C2A58F80D2A743
:080AC4007F027EEFDEFEDFFC85
:010ACC002207
:0A0AD900C2A6120ABEC2A7020AC498
:100A2D00CFCDCFCECCCE12083F7C007D0A12083F31
:040A3D00ED2430FF75
:0A0A4100D2A6120ABEC2A7020AC420
:100A7F00AE07BE0104ED148006BE0209ED243F440B
:060A8F0080FF120AD922CB
:100AAA007F38120AD97F0C120AD97F06120AD97F17
:040ABA0001020AD952
:0A0AE300AC03120A7FAF04020A41BF
:060A0A008B088A09890A2D
:100A1000120A7FE4FDAB08AA09A90A8D827583003A
:0C0A2000120800FF6006120A410D80E978
:010A2C0022A7
:0C09AF007F0AEA24FFFDE434FFFC7E0018
:0809BB008E0D8F0E8C0F8D10C4
:1009C3007F017E00E4FBEBC39510E50F6480F874B0
:0E09D3008098500AAC0DAD0E12082D0B80E876
:0109E10022F3
:040A4B008A0A8B0B7D
:100A4F00120A7FAA0CEAD39400400D1209AFAC0A28
:080A5F00AD0B120A2D1A80ED07
:010A6700226C
:10090400120A7FC3EA64809480400B7F2B120A4151
:100914008A168B17800E7F2D120A41C3E49BF517AC
:10092400E49AF516AA15EAD39400400D1209AFAC67
:0909340016AD17120A2D1A80ED10
:01093D002297
:04093E008A1F8B2061
:10094200120A7FAA21EAD3940040297F101209B12A
:10095200AC1FAD20CFCDCFCECCCE12083FEF540F7F
:10096200FEC3940AEE5004243080022437FF120A98
:04097200411A80D1D5
:01097600225E
:040977008A248B251E
:10097B00120A7FAA26EAD394004028EA24FFFDE45A
:10098B0034FFFC7F027E001209BBAC24AD25CFCD1A
:10099B00CFCECCCE12083FEF54012430FF120A41C8
:0309AB001A80D2DD
:0109AE002226
:100A68005389F0438901758A18758CFCC28DD28C24
:070A7800D2A9D2AFC2B922DE
:03000000020ACD24
:0C0ACD00787FE4F6D8FD758126020894BD
:10080000BB010CE58229F582E5833AF583E02250AD
:1008100006E92582F8E622BBFE06E92582F8E222F7
:0D082000E58229F582E5833AF583E4932211
:10082D00EF8DF0A4A8F0CF8CF0A428CE8DF0A42EDF
:02083D00FE2299
:10083F00BC000BBE0029EF8DF084FFADF022E4CC9D
:10084F00F875F008EF2FFFEE33FEEC33FCEE9DEC66
:10085F00984005FCEE9DFE0FD5F0E9E4CEFD22EDAC
:10086F00F8F5F0EE8420D21CFEADF075F008EF2FF6
:10087F00FFED33FD4007985006D5F0F222C398FDE7
:05088F000FD5F0EA2284
:00000001FF
