:100170005389F0438901758A18758CFCC28DD28C25
:07018000D2A9D2AFC2B922DF
:10018700EF1FAC0670011E4C600A7D027CEFDCFE9F
:04019700DDFC80EC1F
:01019B002241
:100157000004000400041602180219061802190404
:090167001D04180C110211025ACA
:10009A00204A0A0000F88CF8F3F95BD2A8FA15FA9C
:1000AA0067FAB9FB04FB4BFB90FBCFFC10FC44FC4A
:1000BA0079FCACFCDCFD09FD34FD5CFD82FDA6FD8E
:1000CA00C8FDE8FE06FE22FE3DFE56FE6EFE85FED9
:0D00DA009AFEAEFEC1FED3FEE4FEF4FF036D
:1000E800120170E50890015793FF645A601F8F0949
:1000F8000508E50875F07DA4FFAEF0120187050834
:10010800C28C7F057E00120187D28C80D6C28C7F7C
:0B011800F47E01120187E4F50880C8A6
:03000B00020123CC
:10012300C0E0C0D075D000C000C006E50925E024BA
:100133000AF8E6FE08E64E6012E50925E0240AF80F
:10014300E6FE08E6F58AEEF58CB295D006D000D02F
:04015300D0D0E032F6
:0300000002000EED
:0C000E00787FE4F6D8FD758153020055A0
:10001A000200E8E493A3F8E493A34003F68001F214
:10002A0008DFF48029E493A3F85407240CC8C333E7
:10003A00C4540F4420C8834004F456800146F6DFB6
:10004A00E4800B010204081020408090009AE47EAC
:10005A00019360BCA3FF543F30E509541FFEE493AB
:10006A00A360010ECF54C025E060A840B8E493A372
:10007A00FAE493A3F8E493A3C8C582C8CAC583CA9D
:10008A00F0A3C8C582C8CAC583CADFE9DEE780BE55
:0100E7000018
:00000001FF
