:100B4A00EF1FAC0670011E4C600A7D027CEFDCFED2
:040B5A00DDFC80EC52
:010B5E002274
:060B7300C2A58F80D2A78D
:080B79007F027EEFDEFEDFFCCF
:010B81002251
:0A0B9B00C2A6120B73C2A7020B7969
:100A7400CFCDCFCECCCE12033C7C007D0A12033CFA
:040A8400ED2430FF2E
:0A0A8800D2A6120B73C2A7020B796D
:100A9200AE07EEFB7A0064017004ED148009EB648A
:0E0AA200024A7009ED243F4480FF120B9B2294
:100B5F007F38120B9B7F0C120B9B7F06120B9B7F18
:040B6F0001020B9BD9
:0A0BA500AC03120A92AF04020A88A2
:060A0D008B168A17891800
:100A1300120A92E4FDAB16AA17A9188D82758300FA
:0C0A23001202FDFF6006120A880D80E937
:010A2F0022A4
:0A08ED00EF24FFFDEE34FFFC7F0A4C
:0808F7008E1D8F1E8C1F8D2049
:1008FF007F017E00E4FBEBC39520E51F6480F87455
:0E090F008098500AAC1DAD1E12032A0B80E822
:01091D0022B7
:0409C5008A188B19E8
:1009C900120A92AA1AEAFF7E00D3940074809480D6
:0F09D900400D1208EDAC18AD19120A741A80E621
:0109E80022EC
:0407F4008B828A83E7
:1007F800120A92C3E58364809480400D7F2B120A0D
:100808008885831B85821C80107F2D120A88C3E48B
:100818009582F51CE49583F51BAA1AEAFF7E00D39E
:10082800940074809480400D1208EDAC1BAD1C122E
:050838000A741A80E6BD
:01083D002298
:0407A9008A238B24F0
:1007AD00120A92AA25EAD39400748094804037EA05
:1007BD0024FFFDE434FFFC7F107E001208F7AC230C
:1007CD00AD24CFCDCFCECCCE12033CEF540FFEC314
:1007DD00940A74809480EE5004243080022437FFF4
:0607ED00120A881A80BF09
:0107F30022E3
:04087E008A288B2910
:10088200120A92AA2AEAFF7E00D39400748094800E
:100892004026EF24FFFDEE34FFFC7F021208F7AC86
:1008A20028AD29CFCDCFCECCCE12033CEF540124BC
:0808B20030FF120A881A80CD04
:0108BA00221B
:100ACE00543A0054483A00544C3A004F563A4800B3
:0D0ADE004F563A4C00202020202020200000
:030BCE00010D0016
:10046D00120B827FE87E03120B4AE4FF12091E8FE6
:10047D000A7F0112091E8F0B120B07AF0AEF33957E
:10048D00E0FED3EF947DEE64809480501FAF0BEFB0
:10049D003395E0FEC3EF94C9EE6480947F400DD395
:1004AD00E50B6480F8E50A6480985006750A1475AA
:1004BD000B0F120B5F7BFF7A0A79CE7D017F011244
:1004CD000A0D7BFF7A0A79D17D017F02120A0D7B1D
:1004DD00FF7A0A79D57D097F02120A0DE50AFB33F1
:1004ED0095E0FA751A037D047F021207F4E50BFB04
:1004FD003395E0FA751A037D0C7F021207F4120B87
:10050D00C28F0C120B8212094E8F158E148D138C07
:10051D0012AF11AE10AD0FAC0E12027CAB07AA06D6
:10052D00751A037D047F011209C57B2E7D077F019E
:10053D00120BA5E4FFFE7DC87C42AB11AA10A90FDA
:10054D00A80E12000E12027CE47B64FAF9F8120375
:10055D00CD751A027D087F011209C5E4FFFEFDFC71
:10056D00AB15AA14A913A8121201B4501E7B2D7D30
:10057D00037F01120BA5AF15AE14AD13AC12120211
:10058D002D8F118E108D0F8C0E80157B2B7D037F83
:10059D0001120BA585151185141085130F85120EEB
:1005AD00E50C7003020665FF7E0064017017050AF5
:1005BD00AD0AED3395E0FCD3ED947DEC6480948031
:1005CD004003750A7DEF64024E7011150AD3E50BD9
:1005DD006480F8E50A6480985002050AE50C64030E
:1005ED007011050BC3E50A6480F8E50B6480984033
:1005FD0002150BE50C64047017150BAF0BEF33955B
:10060D00E0FEC3EF94C9EE6480947F5003750BC96F
:10061D00E50AFB3395E0FA751A037D047F02120794
:10062D00F4E50BFB3395E0FA751A037D0C7F02128E
:10063D0007F4E50AFD3395E0FCE4FF1209E97F05B7
:10064D007E00120B4AE50BFD3395E0FC7F0112098C
:10065D00E97F057E00120B4AAC0AEC120248AB157D
:10066D00AA14A913A8121201B4601340117BFF7ACA
:10067D000A79D97D0D7F01120A0D7F2C8022AC0BDA
:10068D00EC120248AB15AA14A913A8121201B4500A
:10069D00177BFF7A0A79DE7D0D7F01120A0D7FF43B
:1006AD007E01120A5202050B7BFF7A0A79E37D0D5A
:0806BD007F01120A0D02050B7A
:03000B0002075198
:10075100C0E0C0F0C083C082C0D075D000C000C06E
:0D07610001C002C003C004C005C006C007EF
:10076E00758A18758CFC0509E50970020508C39495
:10077E0014E5089400400975080075090012083E3A
:10078E00D007D006D005D004D003D002D001D000BF
:0B079E00D0D0D082D083D0F0D0E03269
:100AB000C2AFD2B7C2B77FF7DFFED2B77F20DFFE6B
:0D0AC000A2B7E433FE7FF7DFFED2AFAF0632
:010ACD002206
:100B1E00C2B77E04C2AFDEFEEF24FF92B77E18DEB0
:050B2E00FED2B7D2AFBA
:010B3300229F
:100AEB00C2B77F02C2AFDFFED2B77F02DFFEA2B773
:0B0AFB00E433FE7F18DFFED2AFAF0631
:010B060022CC
:020A3000AD0710
:100A3200E4FCECC39408748094805013A8047401FD
:0F0A4200088002C333D8FC5DFF120B1E0C80E34B
:010A51002282
:10097900E4FDFCECC39408748094805016120AEBD1
:10098900EF600DA8047401088002C333D8FC420546
:050999000C80E0AF0539
:01099E002236
:0D0B8200120AB07FCC120A307F44020A3004
:10094E00120AB07FCC120A307FBE120A3012097919
:10095E008F16120979EFFEE516FFFDAC06EC1202BA
:0B096E0043E4FBFA7980784102011796
:1009E9008F168C178D18120BB97FA01208BB120B2A
:1009F9008FAF161208BB120B8FAF181208BB120B60
:040A09008F02000355
:02091E008F1632
:10092000120BB97FA01208BB120B8FAF161208BBB7
:10093000120B8F120BB97FA11208BB120B8F120979
:0D0940009F8F177F01120BAF120003AF173E
:01094D002287
:090BB900D2A0D2A1C2A0C2A12267
:07000300C2A0D2A1D2A0228D
:0208BB00AD0787
:1008BD00E4FBEBC394087480948050237E00748015
:1008CD00A803088006CEA2E713CE13D8F8FFEDF5E6
:0F08DD0082EF558224FF92A0D2A1C2A10B80D33B
:0108EC0022E9
:10099F00D2A0E4FEEEC39408748094805017D2A1C5
:1009AF0030A00DA8067480088002C313D8FC42073C
:0509BF00C2A10E80DF63
:0109C4002210
:0A0BAF00EF24FF92A0D2A1C2A12200
:0B0B8F00D2A0D2A1A2A0E433FFC2A1BB
:010B9A002238
:050BC200AF2DE4F52D4C
:010BC700220B
:100B3400E4FF20B1010F20B0027F0220B2027F0344
:050B440020B3027F0454
:010B49002289
:10083E00852B2C120B348F2BAF2C7E00EF640170A6
:10084E0007E52B7003752D01EF64024E7007E52B43
:10085E007003752D02E52C64037007E52B7003758C
:0F086E002D03E52C64047007E52B7003752D0432
:01087D002258
:100B07005389F0438901758A18758CFCC28DD28C84
:070B1700D2A9D2AFC2B9223E
:050BC800007FF7DFFED5
:010BCD002205
:040A5200AD07AC063A
:100A5600E4FBFAED25E0FFEC33FEC3EB9FEA9E5084
:0D0A66000CB295120BC80BBB00010A80E614
:010A73002260
:10000E00EC4D6011E8497017ED33EC3304600DE4EC
:10001E00FCFFFEFD22E933E8330470F80202E81219
:10002E0002B358046009E4CC24815006285009021A
:10003E0002F22840030202EFC0E0EB4A7044B9809E
:10004E0006D0E0FB0202DEEF4E701CBD8008EBFF17
:10005E00EAFEE9FD80EBE98DF0A4FEE5F00200F783
:10006E00E9CDF9EAFEEBFFEF89F0A4FCE5F0CE89CD
:10007E00F0A42EFFE435F0CD89F0A42DFEE435F08A
:10008E008067EF4E7005BD80D780C3EF8BF0A4ACB8
:10009E00F0EE8BF0A42CFCE435F0F8EF8AF0A42CF3
:1000AE00E5F038FCE433CB8DF0A42CFCE5F03BF806
:1000BE00EE8AF0A42CFCE5F038F8E433CF89F0A4F6
:1000CE002CFCE5F038CF3400CE89F0A42FFFE5F0FC
:1000DE003EFEE433C98DF0A42EFEE5F039CD8AF054
:1000EE00A42FFFE5F03EFEE43DFD33D0E0FB5007CC
:1000FE000BBB000F0202F2EC2CFCEF33FFEE33FED3
:06010E00ED33FD0202CA00
:100114000202F2EC5D046005E8590470030202E88F
:100124001202B3580460F6EC4860F2EC7004FDFE71
:10013400FF22C860DB2481C85009C39860025006BE
:100144000202EF9850CAF582E9294B4A7005AB8246
:100154000202DE75F0007C1A7880C3EF9BEE9AED04
:1001640099400DC3EF9BFFEE9AFEED99FDE842F036
:10017400DC23ACF0D0E0FFD0E0FED0E0FDAB822089
:10018400E7101BEB60BAEC2CFCEF33FFEE33FEED13
:1001940033FD0202CAE803F830E705C0F075F00049
:1001A400EF2FFFEE33FEED33FD40B830E7C280AAF7
:1001B40074F8CC6480CCC86480C8F58204604FC3F2
:1001C400EB9FF5F0EA9E42F0E99D42F0E89C45F091
:1001D400603C501DE5825FFFE582D313CB5BCBF41B
:1001E4002B5582FB50280ABA002409B90020088044
:1001F4001DE5825BFBE582D313CF5FCFF4C3132FDE
:100204005582FF50090EBE00050DBD00010CC3EB65
:100214009FF5F0EA9E42F0E99D42F0E89C45F060CB
:0902240007CC4820E701B3EC22ED
:10022D00ED33EC33600A047003BD8004ECB2E7FCDF
:01023D00229E
:10023E0075F020800E75F010800575F0087D007E3B
:10024E00007F003392D530D50312045FEC3340109B
:10025E00EF33FFEE33FEED33FDEC33FCD5F0ED2244
:0E026E00E5F0247EA2D513CC92E7CDCEFF2280
:10027C00EDD2E7CD33EC3392D524814006E4FFFE7A
:10028C00FDFC22FCE4CFCECDCC24E0501174FF80D9
:10029C00EDC3CC13CCCD13CDCE13CECF13CF047076
:0702AC00F030D5DE02045F13
:1002B300E9D2E7C933E833F892D5EDD2E7CD33EC91
:0702C30033FC5002B2D5220A
:1002CA00EC30E7100FBF000C0EBE00080DBD000495
:1002DA000BEB6014A2D5EB13FCED92E7FD2274FF41
:1002EA00FCFDFEFF22E480F8A2D574FF13FC7D809A
:0302FA00E480EFAE
:030000000206C530
:0C06C500787FE4F6D8FD75812D02070C4B
:1002FD00BB010CE58229F582E5833AF583E02250B6
:10030D0006E92582F8E622BBFE06E92582F8E222FF
:0D031D00E58229F582E5833AF583E4932219
:10032A00EF8DF0A4A8F0CF8CF0A428CE8DF0A42EE7
:02033A00FE22A1
:10033C00BC000BBE0029EF8DF084FFADF022E4CCA5
:10034C00F875F008EF2FFFEE33FEEC33FCEE9DEC6E
:10035C00984005FCEE9DFE0FD5F0E9E4CEFD22EDB4
:10036C00F8F5F0EE8420D21CFEADF075F008EF2FFE
:10037C00FFED33FD4007985006D5F0F222C398FDEF
:05038C000FD5F0EA228C
:1003910075F008758200EF2FFFEE33FECD33CDCC23
:1003A10033CCC58233C5829BED9AEC99E5829840A6
:1003B1000CF582EE9BFEED9AFDEC99FC0FD5F0D683
:1003C100E4CEFBE4CDFAE4CCF9A88222B800C1B9AD
:1003D1000059BA002DEC8BF084CFCECDFCE5F0CBEB
:1003E100F97818EF2FFFEE33FEED33FDEC33FCEB24
:1003F10033FB10D703994004EB99FB0FD8E5E4F9DF
:10040100FA227818EF2FFFEE33FEED33FDEC33FCCB
:10041100C933C910D7059BE99A4007EC9BFCE99ABF
:10042100F90FD8E0E4C9FAE4CCFB2275F010EF2F04
:10043100FFEE33FEED33FDCC33CCC833C810D70704
:100441009BEC9AE899400AED9BFDEC9AFCE899F83F
:0E0451000FD5F0DAE4CDFBE4CCFAE4C8F922D2
:0E045F00C3E49FFFE49EFEE49DFDE49CFC22AE
:1006D10002046DE493A3F8E493A34003F68001F2CE
:1006E10008DFF48029E493A3F85407240CC8C3332A
:1006F100C4540F4420C8834004F456800146F6DFF9
:10070100E4800B0102040810204080900BCEE47EAF
:10071100019360BCA3FF543F30E509541FFEE493ED
:10072100A360010ECF54C025E060A840B8E493A3B4
:10073100FAE493A3F8E493A3C8C582C8CAC583CADF
:10074100F0A3C8C582C8CAC583CADFE9DEE780BE97
:010BD1000023
:00000001FF
