:100D3400EF1FAC0670011E4C600A7D027CEFDCFEE6
:040D4400DDFC80EC66
:010D48002288
:060D5D00C2A58F80D2A7A1
:080D63007F027EEFDEFEDFFCE3
:010D6B002265
:0A0D7900C2A6120D5DC2A7020D63B1
:100C9100CFCDCFCECCCE12033C7C007D0A12033CDB
:040CA100ED2430FF0F
:0A0CA500D2A6120D5DC2A7020D6376
:100CAF00AE07EEFB7A0064017004ED148009EB646B
:0E0CBF00024A7009ED243F4480FF120D792295
:100D49007F38120D797F0C120D797F06120D797F8C
:040D590001020D790D
:0A0D8300AC03120CAFAF04020CA584
:060C2A008B198A1A891BD8
:100C3000120CAFE4FDAB19AA1AA91B8D82758300B3
:0C0C40001202FDFF6006120CA50D80E9F9
:010C4C002285
:0A0B8400EF24FFFDEE34FFFC7F0AB2
:080B8E008E208F218C228D23A3
:100B96007F017E00E4FBEBC39523E5226480F874B5
:0E0BA6008098500AAC20AD2112032A0B80E883
:010BB400221E
:040C06008A1B8B1C9E
:100C0A00120CAFAA1DEAFF7E00D394007480948070
:0F0C1A00400D120B84AC1BAD1C120C911A80E61E
:010C290022A8
:040AC3008B828A8315
:100AC700120CAFC3E58364809480400D7F2B120C1A
:100AD700A585831E85821F80107F2D120CA5C3E478
:100AE7009582F51FE49583F51EAA1DEAFF7E00D3C4
:100AF700940074809480400D120B84AC1EAD1F12BD
:050B07000C911A80E6CC
:010B0C0022C6
:040A78008A268B2718
:100A7C00120CAFAA28EAD39400748094804037EA11
:100A8C0024FFFDE434FFFC7F107E00120B8EAC269D
:100A9C00AD27CFCDCFCECCCE12033CEF540FFEC33F
:100AAC00940A74809480EE5004243080022437FF22
:060ABC00120CA51A80BF18
:010AC2002211
:040B0D008A2B8B2C78
:100B1100120CAFAA2DEAFF7E00D39400748094805A
:100B21004026EF24FFFDEE34FFFC7F02120B8EAC5A
:100B31002BAD2CCFCDCFCECCCE12033CEF54012424
:080B410030FF120CA51A80CD53
:010B49002289
:100B4A00543A0054483A00544C3A004F00202020AE
:100B5A00202020202020202020202020202020208B
:100B6A0020004D00530020004F563A48004F563A95
:0A0B7A004C00202020202020200045
:090D8D00010E0001130001140124
:10046D00120D07120D6C7FE87E03120D34AF0AEFEB
:10047D003395E0FED3EF947DEE64809480501FAFF2
:10048D000BEF3395E0FEC3EF94C9EE6480947F408B
:10049D000DD3E50B6480F8E50A6480985006750A63
:1004AD001E750B14120D497BFF7A0B794A7D017F66
:1004BD0001120C2A7BFF7A0B794D7D017F02120C04
:1004CD002A7BFF7A0B79517D097F02120C2A7BFF63
:1004DD007A0B79557D0B7F01120C2AE50AFB3395BA
:1004ED00E0FA751D037D047F02120AC3E50BFB3391
:1004FD0095E0FA751D037D0C7F02120AC31207B138
:10050D008F0C1209C68F0D120D6C120BB58F188E34
:10051D00178D168C15AF12AE11AD10AC0F12027CEB
:10052D00AB07AA06751D037D047F01120C067B2EF9
:10053D007D077F01120D83E4FFFE7DC87C42AB1267
:10054D00AA11A910A80F12000E12027CE47B64FA06
:10055D00F9F81203CD751D027D087F01120C06E41A
:10056D00FFFEFDFCAB18AA17A916A8151201B45071
:10057D0024E5146401701E7B2D7D037F01120D8314
:10058D00AF18AE17AD16AC1512022D8F128E118D40
:10059D00108C0F80157B2B7D037F01120D83851829
:1005AD001285171185161085150FE50C70030206BF
:1005BD00B3FF7E0064017017050AAD0AED3395E0B7
:1005CD00FCD3ED947DEC648094804003750A7DEF3F
:1005DD0064024E7011150AD3E50B6480F8E50A64C8
:1005ED0080985002050AE50C64037011050BC3E5F4
:1005FD000A6480F8E50B6480984002150BE50C64E5
:10060D00047017150BAF0BEF3395E0FEC3EF94C9D4
:10061D00EE6480947F5003750BC9E50AFB3395E0BA
:10062D00FA751D037D047F02120AC3E50BFB33959A
:10063D00E0FA751D037D0C7F02120AC3E50C6405FB
:10064D00700D7BFF7A0B79577D017F02120C2AE525
:10065D000C6406703C7BFF7A0B794D7D017F021295
:10066D000C2A7BFF7A0B79517D097F02120C2AE54A
:10067D000AFB3395E0FA751D037D047F02120AC350
:10068D00E50BFB3395E0FA751D037D0C7F02120A15
:10069D00C3E50C6407700FF5147BFF7A0B796C7D45
:1006AD000C7F01120C2AE50D604F64017016F50EDA
:1006BD007BFF7A0B79557D0B7F01120C2A7F327EE1
:1006CD0000120C6FE50D64027017750E017BFF7A39
:1006DD000B796E7D0B7F01120C2A7F327E00120C7E
:1006ED006FE50D64047012751401F5137BFF7A0B21
:1006FD0079707D0C7F01120C2AAC0AEC120248AB0A
:10070D0018AA17A916A8151201B460244022E50EE7
:10071D00701EE514701A7BFF7A0B79727D0D7F01C7
:10072D00120C2A7F2C7E01120C6F75133C02050AE8
:10073D00AC0AEC120248AB18AA17A916A81512019B
:10074D00B4601D401BE50E7017E514640170117B3C
:10075D00FF7A0B79727D0D7F01120C2A7F2C80267A
:10076D00AC0BEC120248AB18AA17A916A81512016A
:10077D00B4501EE50E701A7BFF7A0B79777D0D7FD5
:10078D0001120C2A7FF47E01120C6FE4F5130205A1
:10079D000A7BFF7A0B797C7D0D7F01120C2AE4F523
:0407AD001302050A24
:03000B00020A27BF
:100A2700C0E0C0F0C0D075D000C000C004C005C091
:030A370006C007EF
:100A3A00758A9C758CFF0509E50970020508AE08E0
:100A4A00FF7C007D6412033C8C088D09C3E509957F
:0D0A5A0013E50894005004D2908002C29071
:100A6700D007D006D005D004D000D0D0D0F0D0E049
:010A7700324C
:100CCD00C2AFD2B7C2B77FF7DFFED2B77F20DFFE4C
:0D0CDD00A2B7E433FE7FF7DFFED2AFAF0613
:010CEA0022E7
:100D1E00C2B77E04C2AFDEFEEF24FF92B77E18DEAE
:050D2E00FED2B7D2AFB8
:010D3300229D
:100CEB00C2B77F02C2AFDFFED2B77F02DFFEA2B771
:0B0CFB00E433FE7F18DFFED2AFAF062F
:010D060022CA
:020C4D00AD07F1
:100C4F00E4FCECC39408748094805013A8047401DE
:0F0C5F00088002C333D8FC5DFF120D1E0C80E32A
:010C6E002263
:100BE000E4FDFCECC39408748094805016120CEB66
:100BF000EF600DA8047401088002C333D8FC4205DD
:050C00000C80E0AF05CF
:010C050022CC
:0D0D6C00120CCD7FCC120C4D7F44020C4DBB
:100BB500120CCD7FCC120C4D7FBE120C4D120BE0EA
:100BC5008F19120BE0EFFEE519FFFDAC06EC1202E2
:0B0BD50043E4FBFA798078410201172D
:1009C600E4F51920B1137F14FE120D3430B1FD7F0A
:1009D600147E00120D3475190120B0147F147E00A8
:1009E600120D3430B0FD7F147E00120D34751902DD
:1009F60020B2147F147E00120D3430B2FD7F147EB7
:100A060000120D3475190320B3147F147E00120DE5
:100A16003430B3FD7F147E00120D34751904AF19FE
:010A260022AD
:100D07005389F0438901758A18758CFCC28DD28C82
:070D1700D2A9D2AFC2B9223C
:05000300007FF7DFFEA5
:0100080022D5
:040C6F00AD07AC061B
:100C7300E4FBFAED25E0FFEC33FEC3EB9FEA9E5065
:0D0C83000CB2951200030BBB00010A80E6C5
:010C90002241
:1007B100E4F5197590FFC2932097137F14FE120D73
:1007C100343097FD7F147E00120D34751901209687
:1007D100147F147E00120D343096FD7F147E0012BA
:1007E1000D347519052095147F147E00120D3430D7
:1007F10095FD7F147E00120D347519092094147F24
:10080100147E00120D343094FD7F147E00120D34DD
:1008110075190D7590FFC2922097147F147E0012F6
:100821000D343097FD7F147E00120D3475190220AE
:1008310096147F147E00120D343096FD7F147E00D5
:10084100120D347519062095147F147E00120D3493
:100851003095FD7F147E00120D3475190A20941411
:100861007F147E00120D343094FD7F147E00120D32
:100871003475190E7590FFC2912097147F147E0074
:10088100120D343097FD7F147E00120D347519035B
:100891002096147F147E00120D343096FD7F147E55
:1008A10000120D347519072095147F147E00120D66
:1008B100343095FD7F147E00120D3475190B209490
:1008C100147F147E00120D343094FD7F147E0012CB
:1008D1000D3475190F7590FFC2902097147F147E07
:1008E10000120D343097FD7F147E00120D347519FE
:1008F100042096147F147E00120D343096FD7F146F
:100901007E00120D347519082095147F147E001293
:100911000D343095FD7F147E00120D3475190C20B5
:1009210094147F147E00120D343094FD7F147E00E8
:08093100120D34751910AF1905
:01093900229B
:10000E00EC4D6011E8497017ED33EC3304600DE4EC
:10001E00FCFFFEFD22E933E8330470F80202E81219
:10002E0002B358046009E4CC24815006285009021A
:10003E0002F22840030202EFC0E0EB4A7044B9809E
:10004E0006D0E0FB0202DEEF4E701CBD8008EBFF17
:10005E00EAFEE9FD80EBE98DF0A4FEE5F00200F783
:10006E00E9CDF9EAFEEBFFEF89F0A4FCE5F0CE89CD
:10007E00F0A42EFFE435F0CD89F0A42DFEE435F08A
:10008E008067EF4E7005BD80D780C3EF8BF0A4ACB8
:10009E00F0EE8BF0A42CFCE435F0F8EF8AF0A42CF3
:1000AE00E5F038FCE433CB8DF0A42CFCE5F03BF806
:1000BE00EE8AF0A42CFCE5F038F8E433CF89F0A4F6
:1000CE002CFCE5F038CF3400CE89F0A42FFFE5F0FC
:1000DE003EFEE433C98DF0A42EFEE5F039CD8AF054
:1000EE00A42FFFE5F03EFEE43DFD33D0E0FB5007CC
:1000FE000BBB000F0202F2EC2CFCEF33FFEE33FED3
:06010E00ED33FD0202CA00
:100114000202F2EC5D046005E8590470030202E88F
:100124001202B3580460F6EC4860F2EC7004FDFE71
:10013400FF22C860DB2481C85009C39860025006BE
:100144000202EF9850CAF582E9294B4A7005AB8246
:100154000202DE75F0007C1A7880C3EF9BEE9AED04
:1001640099400DC3EF9BFFEE9AFEED99FDE842F036
:10017400DC23ACF0D0E0FFD0E0FED0E0FDAB822089
:10018400E7101BEB60BAEC2CFCEF33FFEE33FEED13
:1001940033FD0202CAE803F830E705C0F075F00049
:1001A400EF2FFFEE33FEED33FD40B830E7C280AAF7
:1001B40074F8CC6480CCC86480C8F58204604FC3F2
:1001C400EB9FF5F0EA9E42F0E99D42F0E89C45F091
:1001D400603C501DE5825FFFE582D313CB5BCBF41B
:1001E4002B5582FB50280ABA002409B90020088044
:1001F4001DE5825BFBE582D313CF5FCFF4C3132FDE
:100204005582FF50090EBE00050DBD00010CC3EB65
:100214009FF5F0EA9E42F0E99D42F0E89C45F060CB
:0902240007CC4820E701B3EC22ED
:10022D00ED33EC33600A047003BD8004ECB2E7FCDF
:01023D00229E
:10023E0075F020800E75F010800575F0087D007E3B
:10024E00007F003392D530D50312045FEC3340109B
:10025E00EF33FFEE33FEED33FDEC33FCD5F0ED2244
:0E026E00E5F0247EA2D513CC92E7CDCEFF2280
:10027C00EDD2E7CD33EC3392D524814006E4FFFE7A
:10028C00FDFC22FCE4CFCECDCC24E0501174FF80D9
:10029C00EDC3CC13CCCD13CDCE13CECF13CF047076
:0702AC00F030D5DE02045F13
:1002B300E9D2E7C933E833F892D5EDD2E7CD33EC91
:0702C30033FC5002B2D5220A
:1002CA00EC30E7100FBF000C0EBE00080DBD000495
:1002DA000BEB6014A2D5EB13FCED92E7FD2274FF41
:1002EA00FCFDFEFF22E480F8A2D574FF13FC7D809A
:0302FA00E480EFAE
:0300000002093AB8
:0C093A00787FE4F6D8FD75812D0209815C
:1002FD00BB010CE58229F582E5833AF583E02250B6
:10030D0006E92582F8E622BBFE06E92582F8E222FF
:0D031D00E58229F582E5833AF583E4932219
:10032A00EF8DF0A4A8F0CF8CF0A428CE8DF0A42EE7
:02033A00FE22A1
:10033C00BC000BBE0029EF8DF084FFADF022E4CCA5
:10034C00F875F008EF2FFFEE33FEEC33FCEE9DEC6E
:10035C00984005FCEE9DFE0FD5F0E9E4CEFD22EDB4
:10036C00F8F5F0EE8420D21CFEADF075F008EF2FFE
:10037C00FFED33FD4007985006D5F0F222C398FDEF
:05038C000FD5F0EA228C
:1003910075F008758200EF2FFFEE33FECD33CDCC23
:1003A10033CCC58233C5829BED9AEC99E5829840A6
:1003B1000CF582EE9BFEED9AFDEC99FC0FD5F0D683
:1003C100E4CEFBE4CDFAE4CCF9A88222B800C1B9AD
:1003D1000059BA002DEC8BF084CFCECDFCE5F0CBEB
:1003E100F97818EF2FFFEE33FEED33FDEC33FCEB24
:1003F10033FB10D703994004EB99FB0FD8E5E4F9DF
:10040100FA227818EF2FFFEE33FEED33FDEC33FCCB
:10041100C933C910D7059BE99A4007EC9BFCE99ABF
:10042100F90FD8E0E4C9FAE4CCFB2275F010EF2F04
:10043100FFEE33FEED33FDCC33CCC833C810D70704
:100441009BEC9AE899400AED9BFDEC9AFCE899F83F
:0E0451000FD5F0DAE4CDFBE4CCFAE4C8F922D2
:0E045F00C3E49FFFE49EFEE49DFDE49CFC22AE
:1009460002046DE493A3F8E493A34003F68001F256
:1009560008DFF48029E493A3F85407240CC8C333B2
:10096600C4540F4420C8834004F456800146F6DF81
:10097600E4800B0102040810204080900D8DE47E77
:10098600019360BCA3FF543F30E509541FFEE49376
:10099600A360010ECF54C025E060A840B8E493A33D
:1009A600FAE493A3F8E493A3C8C582C8CAC583CA68
:1009B600F0A3C8C582C8CAC583CADFE9DEE780BE20
:010D9600005C
:00000001FF
