:100800007509FE750B7FE4F508E4F50A8509A0C2B9
:100810009512086DAF097801EF08800123D8FDF526
:1008200009120868050AE50AC3940840DF0508E5CF
:1008300008C3940340D3E4F508E4F50A850BA0C28D
:100840009512086DAF0B7801EF08800103D8FDF514
:100850000B120868050AE50AC3940840DF0508E59D
:0808600008C3940340D380FE9D
:0908680075A0FFD2957FD07E0738
:10087100D3EF9400EE940040147D6E7C00ED1D706A
:0D088100011CED4C70F7EF1F70E61E80E3C8
:01088E002247
:0300000002088F64
:0C088F00787FE4F6D8FD75810B020800AC
:00000001FF
