:1009C2003F065B4F666D7D077F6F777C395E79717D
:0809DD000213000002110000EA
:0B09D200EF1FAC0670011E4C70F622F7
:10091D00E4F51575900FE590640F607C7FE87E031C
:10092D001209D20512E51270020511E590640F60EF
:10093D0067AF90EF24F5601024FE6011146013244E
:10094D00077012E4F510800D751001800875100206
:10095D0080037510037590F0AF90EF245060112453
:10096D00E0601524F0600D24707013851010800E5A
:10097D007404800674088002740C2510F510C3E50C
:10098D0015648094B25011E59064F0600B7FE87EA1
:08099D00031209D2051580E6E2
:0109A500222F
:10080000E4F513F514C3E5149512E51395114003AF
:10081000020890E511705CE51214B4080050549081
:10082000082D75F003A4C58325F0C5837302086DF8
:1008300002086902086102085D02085502085102B7
:100840000849020845C2A28002D2A2C2A3C2A48063
:1008500022C2A28002D2A2D2A3C2A48016C2A280C7
:1008600002D2A2C2A3D2A4800AC2A28002D2A2D281
:10087000A3D2A474082514F8E6F5807F647E0012E4
:1008800009D2E4F5800514E5147002051302080589
:010890002245
:1009A600E4F509F50AF50BF50C12091DE510900999
:0C09B600C293F509F50AF50BF50C80E47E
:0300000002089162
:0C089100787FE4F6D8FD7581150208D8C8
:10089D000209A6E493A3F8E493A34003F68001F2C2
:1008AD0008DFF48029E493A3F85407240CC8C3335C
:1008BD00C4540F4420C8834004F456800146F6DF2B
:1008CD00E4800B01020408102040809009DDE47ED5
:1008DD00019360BCA3FF543F30E509541FFEE49320
:1008ED00A360010ECF54C025E060A840B8E493A3E7
:1008FD00FAE493A3F8E493A3C8C582C8CAC583CA12
:10090D00F0A3C8C582C8CAC583CADFE9DEE780BEC9
:0109E5000011
:00000001FF
