:030000000208D81B
:0C08D800787FE4F6D8FD75811002091F3E
:1009DF003F065B4F666D7D077F6F777C395E797160
:0D09EF00010800010900050A0000000000D9
:070A0600AE071FEE70FA229B
:0809FD007F327EC8DEFEDFFA46
:010A050022CE
:100800007590F0E59054F064F070030208D5120979
:10081000FDE59054F064F070030208D5750FFEE515
:100820000F20E4030208D5F590E59054F064F070D1
:10083000030208CAE59054F0530F0F250F1209B9AF
:1008400008BF7708AB7B08977D08837E08BAB70896
:10085000A6BB0892BD087EBE08B5D708A1DB088DEF
:10086000DD0879DE08B0E7089CEB0888ED0874EE37
:10087000000008C2E4F5108049751001804475102D
:1008800002803F751003803A75100480357510059D
:100890008030751006802B75100780267510088033
:1008A00021751009801C75100A801775100B8012B5
:1008B00075100C800D75100D800875100E80037575
:1008C000100F050875090102081FE50F25E0440116
:0708D000F50F02081FAF1035
:0108D70022FE
:100964007BF775A07F75803F1208008F0AE509B4F4
:1009740001137D0474092DF8E6FF740A2DF8A60707
:10098400DDF2E4F509E4FCECC3946450DB7D04ED92
:1009940014F8AF03EF08800103D8FDF5A0E4F58057
:1009A400740A2DF8E69009DF93F5807F64120A0635
:0509B400DDDD0C80D226
:1008E400020964E493A3F8E493A34003F68001F2BD
:1008F40008DFF48029E493A3F85407240CC8C33315
:10090400C4540F4420C8834004F456800146F6DFE3
:10091400E4800B01020408102040809009EFE47E7B
:10092400019360BCA3FF543F30E509541FFEE493D8
:10093400A360010ECF54C025E060A840B8E493A39F
:10094400FAE493A3F8E493A3C8C582C8CAC583CACA
:10095400F0A3C8C582C8CAC583CADFE9DEE780BE82
:0109FC0000FA
:1009B900D083D082F8E4937012740193700DA3A3CD
:1009C90093F8740193F5828883E4737402936860E1
:0609D900EFA3A3A380DFE1
:00000001FF
