:06088800F5A07F107E27A1
:0B088E00EF1FAC0670011E4C70F6223C
:10087200AB07AA06EB4A7003D29522B295AF03AE3C
:060882000212088E80F551
:10080000E4FBFAF50875090112088875A0FE1208C4
:100810008A900001AFA07801EF08800123D8FD1273
:100820000888A3E5826408458370E9B2957F647EF9
:100830000012088EEB20E00975A0FE7FE87E0380A1
:100840000775A0FD7F107E2712088E900001AFA0D3
:100850007802EF08800123D8FDF5A07FE87E03121F
:10086000088EA3E5826404458370E30BBB00010A94
:0208700080B94D
:030000000208995A
:0C089900787FE4F6D8FD758109020800A4
:00000001FF
