:0300000002089C57
:0C089C00787FE4F6D8FD75810B0208009F
:10080000E4F508F509D295F5A07F64FE12087F751E
:10081000A0FE12087B750A00750B01AFA07801EFEE
:1008200008800123D8FD120879050BE50B7002053D
:100830000AD39407E50A940040E1E50920E0057534
:10084000A0FE800375A0FD12087B750A00750B01E0
:10085000AFA07802EF08800123D8FD120879050BBC
:10086000E50B7002050AD39403E50A940040E10504
:0908700009E50970C5050880C105
:06087900F5A07F647E0083
:10087F007D587C02AB07AA06EB4A6007EB1B70F8AA
:0C088F001A80F5ED1D70011CED4C70E8A6
:01089B00223A
:00000001FF
