:0409470002080002A0
:040938007FE87E03D3
:0B093C00EF1FAC0670011E4C70F6228D
:1009140020B10F12093820B106750800750901309D
:10092400B1FD20B00E12093820B005E4F508F50930
:0409340030B0FD22C0
:10088C00900000E4F5A0120914E509640145087014
:10089C00367F107E2712093C75A0FE7F107E271232
:1008AC00093C7A007B01AFA07801EF08800123D8C6
:1008BC00FDF5A07F107E2712093C0BBB00010AEB53
:1008CC0064084A70E180CAE5094508703AE582205F
:1008DC00E00975A0FE7FE87E03800775A0FD7F1000
:1008EC007E2712093C7A007B01AFA07802EF0880CA
:1008FC000123D8FDF5A01209380BBB00010AEB64EB
:07090C00044A70E5A380C658
:0109130022C1
:03000000020800F3
:0C080000787FE4F6D8FD758109020847F6
:10080C0002088CE493A3F8E493A34003F68001F26E
:10081C0008DFF48029E493A3F85407240CC8C333ED
:10082C00C4540F4420C8834004F456800146F6DFBC
:10083C00E4800B0102040810204080900947E47EFC
:10084C00019360BCA3FF543F30E509541FFEE493B1
:10085C00A360010ECF54C025E060A840B8E493A378
:10086C00FAE493A3F8E493A3C8C582C8CAC583CAA3
:10087C00F0A3C8C582C8CAC583CADFE9DEE780BE5B
:01094B0000AB
:00000001FF
