:1008E6003F065B4F666D7D077F6F777C395E79715A
:0408F60002080000F4
:1008CC007D017C00EF1FAA0670011E4A70F60DBD5B
:0908DC0000010CED64044C70EB0A
:0108E50022F0
:10088C00758901758C3C758AB0D2AFD2A9D28CD245
:10089C00A2D2A3D2A4D2A0C2A1E4F508F509E5091D
:1008AC009008E693F5807F987E3A1208CC0509E50E
:1008BC000970020508D39409E508940040E080D53E
:030003000208FBF5
:0308FB00C2A03266
:03000000020800F3
:0C080000787FE4F6D8FD758109020847F6
:10080C0002088CE493A3F8E493A34003F68001F26E
:10081C0008DFF48029E493A3F85407240CC8C333ED
:10082C00C4540F4420C8834004F456800146F6DFBC
:10083C00E4800B01020408102040809008F6E47E4E
:10084C00019360BCA3FF543F30E509541FFEE493B1
:10085C00A360010ECF54C025E060A840B8E493A378
:10086C00FAE493A3F8E493A3C8C582C8CAC583CAA3
:10087C00F0A3C8C582C8CAC583CADFE9DEE780BE5B
:0108FA0000FD
:00000001FF
