:04099C00020A00004B
:1009460075A0FE12097012088C8F0CE50C60F7B4C6
:1009560001F4050BE50B7002050AC39402E50A943F
:0A0966000040E3E4F50AF50B80DC25
:03000B000208EDFB
:0B08ED00C0E0C0D075D000C000C00704
:1008F800758A18758CFC0509E50970020508C3940A
:10090800F4E5089401402E750800750900E50B45CB
:100918000A700DAFA07801EF08800123D8FDF5A07B
:10092800E50B6401450A700DAFA07801EF0880015E
:0509380003D8FDF5A04D
:09093D00D007D000D0D0D0E03288
:100970005389F0438901758A18758CFCC28DD28C1D
:07098000D2A9D2AFC2B922D7
:10088C00E4F50D20B1137F14FE12098730B1FD7F02
:10089C00147E00120987750D0120B0147F147E00A0
:1008AC0012098730B0FD7F147E00120987750D0286
:1008BC0020B2147F147E0012098730B2FD7F147EA3
:1008CC0000120987750D0320B3147F147E001209E2
:1008DC008730B3FD7F147E00120987750D04AF0DB0
:0108EC0022E9
:10098700EF1FAC0670011E4C600A7D027CEFDCFE97
:04099700DDFC80EC17
:01099B002239
:03000000020800F3
:0C080000787FE4F6D8FD75810D020847F2
:10080C00020946E493A3F8E493A34003F68001F2B3
:10081C0008DFF48029E493A3F85407240CC8C333ED
:10082C00C4540F4420C8834004F456800146F6DFBC
:10083C00E4800B010204081020408090099CE47EA7
:10084C00019360BCA3FF543F30E509541FFEE493B1
:10085C00A360010ECF54C025E060A840B8E493A378
:10086C00FAE493A3F8E493A3C8C582C8CAC583CAA3
:10087C00F0A3C8C582C8CAC583CADFE9DEE780BE5B
:0109A0000056
:00000001FF
