:100A0300EF1FAC0670011E4C600A7D027CEFDCFE1A
:040A1300DDFC80EC9A
:010A170022BC
:060A2C00C2A58F80D2A7D5
:080A32007F027EEFDEFEDFFC17
:010A3A002299
:0A0A6000C2A6120A2CC2A7020A3235
:1008C500CFCDCFCECCCE12033C7C007D0A12033CAB
:0408D500ED2430FFDF
:0A08D900D2A6120A2CC2A7020A32AE
:1009C100AE07BE0104ED148006BE0209ED243F44CA
:0609D10080FF120A602203
:100A18007F38120A607F0C120A607F06120A607F14
:040A280001020A605D
:0A0A6A00AC031209C1AF040208D961
:0608A2008B158A16891770
:1008A8001209C1E4FDAB15AA16A9178D827583003C
:0C08B8001202FDFF60061208D90D80E955
:0108C4002211
:0C07C6007F0AEA24FFFDE434FFFC7E0003
:0807D2008E1C8F1D8C1E8D1F73
:1007DA007F017E00E4FBEBC3951FE51E6480F8747D
:0E07EA008098500AAC1CAD1D12032A0B80E84B
:0107F80022DE
:040901008A178B18AE
:100905001209C1AA19EAD39400400D1207C6AC1703
:08091500AD181208C51A80EDAF
:01091D0022B7
:1006E2001209C1C3EA64809480400B7F2B1208D99F
:1006F2008A1A8B1B800E7F2D1208D9C3E49BF51B2F
:10070200E49AF51AAA19EAD39400400D1207C6AC6E
:090712001AAD1B1208C51A80ED96
:01071B0022BB
:04071C008A228B237F
:100720001209C1AA24EAD3940040297F101207C8F5
:10073000AC22AD23CFCDCFCECCCE12033CEF540FA5
:10074000FEC3940AEE5004243080022437FF1208BE
:04075000D91A80D161
:010754002282
:04078E008A278B2803
:100792001209C1AA29EAD394004028EA24FFFDE401
:1007A20034FFFC7F027E001207D2AC27AD28CFCDEA
:1007B200CFCECCCE12033CEF54012430FF1208D925
:0307C2001A80D2C8
:0107C5002211
:10091E00543A0054483A00544C3A004F563A480064
:0D092E004F563A4C002020202020202000B1
:10046D00120A3B7FE87E03120A03E4FF1207F98F9D
:10047D000A7F011207F98F0B1209AAD3E50A6480CE
:10048D0094FD5016C3E50B64809449400DD3E50BE4
:10049D006480F8E50A6480985006750A14750B0F90
:1004AD00120A187BFF7A09791E7D017F011208A2BD
:1004BD007BFF7A0979217D017F021208A27BFF7AE9
:1004CD000979257D097F021208A2E50AFB3395E023
:1004DD00FA7519037D047F021206E2E50BFB3395D5
:1004ED00E0FA7519037D0C7F021206E2120A878F5E
:1004FD000C120A3B1208298F148E138D128C11AF1A
:10050D0010AE0FAD0EAC0D12027CAB07AA0675191D
:10051D00037D047F011209017B2E7D077F01120AE5
:10052D006AE4FFFE7DC87C42AB10AA0FA90EA80D90
:10053D0012000E12027CE47B64FAF9F81203CD75F9
:10054D0019027D087F01120901E4FFFEFDFCAB14C9
:10055D00AA13A912A8111201B4501E7B2D7D037F81
:10056D0001120A6AAF14AE13AD12AC1112022D8F27
:10057D00108E0F8D0E8C0D80157B2B7D037F011240
:10058D000A6A85141085130F85120E85110DE50C61
:10059D00700302063AB4010E050AD3E50A6480948D
:1005AD00FD4003750A7DE50CB40211150AD3E50B68
:1005BD006480F8E50A6480985002050AE50CB403DE
:1005CD0011050BC3E50A6480F8E50B6480984002C1
:1005DD00150BE50CB4040E150BC3E50B64809449A3
:1005ED005003750BC9E50AFB3395E0FA7519037DC8
:1005FD00047F021206E2E50BFB3395E0FA75190351
:10060D007D0C7F021206E2E50AFD3395E0FCE4FF66
:10061D0012087E7F057E00120A03E50BFD3395E07F
:10062D00FC7F0112087E7F057E00120A03AC0AECE6
:10063D00120248AB14AA13A912A8111201B4600A30
:10064D0040087BFF7A0979298019AC0BEC1202481E
:10065D00AB14AA13A912A8111201B450107BFF7A82
:10066D0009792E7D0D7F011208A20204F97BFF7A14
:0D067D000979337D0D7F011208A20204F9F6
:03000B0002068A60
:10068A00C0E0C0F0C083C082C0D075D000C000C036
:0D069A0001C002C003C004C005C006C007B7
:1006A700758A18758CFC0509E50970020508C3945D
:1006B70014E50894004009750800750900120755EC
:1006C700D007D006D005D004D003D002D001D00087
:0B06D700D0D0D082D083D0F0D0E03231
:1008E300C2AFD2B7C2B77FF7DFFED2B77F20DFFE3A
:0D08F300A2B7E433FE7FF7DFFED2AFAF0601
:0109000022D4
:1009D700C2B77E04C2AFDEFEEF24FF92B77E18DEF9
:0509E700FED2B7D2AF03
:0109EC0022E8
:10097500C2B77F02C2AFDFFED2B77F02DFFEA2B7EA
:0B098500E433FE7F18DFFED2AFAF06A8
:010990002244
:02099100AD07B0
:10099300E4FC7401A804088002C333D8FC5DFF1291
:0609A30009D70CBC08ECB2
:0109A900222B
:10093B00E4FDFC120975EF600D7401A80408800238
:0C094B00C333D8FC42050CBC08E9AF0522
:01095700227D
:0D0A3B001208E37FCC1209917F440209915B
:100829001208E37FCC1209917FBE12099112093B8C
:100839008F1512093BEFFEE515FFFDAC06EC120220
:0B08490043E4FBFA79807841120117AC
:010854002281
:10087E008F158C168D17120A7E7FA0120855120A3C
:10088E0048AF15120855120A48AF17120855120A2A
:04089E004802000309
:0207F9008F155A
:1007FB00120A7E7FA0120855120A48AF151208552F
:10080B00120A48120A7E7FA1120855120A481209D1
:0D081B00588F167F01120A74120003AF16E9
:0108280022AD
:090A7E00D2A0D2A1C2A0C2A122A3
:07000300C2A0D2A1D2A0228D
:02085500AD07ED
:10085700E4FB74807E00A803088006CEA2E713CECF
:1008670013D8F8FFEDF582EF558224FF92A0D2A1AD
:06087700C2A10BBB08DC6E
:01087D002258
:10095800D2A0E4FED2A130A00D7480A806088002BF
:0C096800C313D8FC4207C2A10EBE08E871
:010974002260
:0A0A7400EF24FF92A0D2A1C2A1223C
:0B0A4800D2A0D2A1A2A0E433FFC2A103
:010A53002280
:050A8700AF2CE4F52C8A
:010A8C002247
:1009ED00E4FF20B1010F20B0027F0220B2027F038D
:0509FD0020B3027F049D
:010A020022D1
:10075500852A2B1209ED8F2AE52BB40107E52A70AE
:1007650003752C01E52BB40207E52A7003752C02ED
:10077500E52BB40307E52A7003752C03E52BB404B8
:0807850007E52A7003752C043E
:01078D002249
:1009AA005389F0438901758A18758CFCC28DD28CE3
:0709BA00D2A9D2AFC2B9229D
:10000E00EC4D6011E8497017ED33EC3304600DE4EC
:10001E00FCFFFEFD22E933E8330470F80202E81219
:10002E0002B358046009E4CC24815006285009021A
:10003E0002F22840030202EFC0E0EB4A7044B9809E
:10004E0006D0E0FB0202DEEF4E701CBD8008EBFF17
:10005E00EAFEE9FD80EBE98DF0A4FEE5F00200F783
:10006E00E9CDF9EAFEEBFFEF89F0A4FCE5F0CE89CD
:10007E00F0A42EFFE435F0CD89F0A42DFEE435F08A
:10008E008067EF4E7005BD80D780C3EF8BF0A4ACB8
:10009E00F0EE8BF0A42CFCE435F0F8EF8AF0A42CF3
:1000AE00E5F038FCE433CB8DF0A42CFCE5F03BF806
:1000BE00EE8AF0A42CFCE5F038F8E433CF89F0A4F6
:1000CE002CFCE5F038CF3400CE89F0A42FFFE5F0FC
:1000DE003EFEE433C98DF0A42EFEE5F039CD8AF054
:1000EE00A42FFFE5F03EFEE43DFD33D0E0FB5007CC
:1000FE000BBB000F0202F2EC2CFCEF33FFEE33FED3
:06010E00ED33FD0202CA00
:100114000202F2EC5D046005E8590470030202E88F
:100124001202B3580460F6EC4860F2EC7004FDFE71
:10013400FF22C860DB2481C85009C39860025006BE
:100144000202EF9850CAF582E9294B4A7005AB8246
:100154000202DE75F0007C1A7880C3EF9BEE9AED04
:1001640099400DC3EF9BFFEE9AFEED99FDE842F036
:10017400DC23ACF0D0E0FFD0E0FED0E0FDAB822089
:10018400E7101BEB60BAEC2CFCEF33FFEE33FEED13
:1001940033FD0202CAE803F830E705C0F075F00049
:1001A400EF2FFFEE33FEED33FD40B830E7C280AAF7
:1001B40074F8CC6480CCC86480C8F58204604FC3F2
:1001C400EB9FF5F0EA9E42F0E99D42F0E89C45F091
:1001D400603C501DE5825FFFE582D313CB5BCBF41B
:1001E4002B5582FB50280ABA002409B90020088044
:1001F4001DE5825BFBE582D313CF5FCFF4C3132FDE
:100204005582FF50090EBE00050DBD00010CC3EB65
:100214009FF5F0EA9E42F0E99D42F0E89C45F060CB
:0902240007CC4820E701B3EC22ED
:10022D00ED33EC33600A047003BD8004ECB2E7FCDF
:01023D00229E
:10023E0075F020800E75F010800575F0087D007E3B
:10024E00007F003392D530D50312045FEC3340109B
:10025E00EF33FFEE33FEED33FDEC33FCD5F0ED2244
:0E026E00E5F0247EA2D513CC92E7CDCEFF2280
:10027C00EDD2E7CD33EC3392D524814006E4FFFE7A
:10028C00FDFC22FCE4CFCECDCC24E0501174FF80D9
:10029C00EDC3CC13CCCD13CDCE13CECF13CF047076
:0702AC00F030D5DE02045F13
:1002B300E9D2E7C933E833F892D5EDD2E7CD33EC91
:0702C30033FC5002B2D5220A
:1002CA00EC30E7100FBF000C0EBE00080DBD000495
:1002DA000BEB6014A2D5EB13FCED92E7FD2274FF41
:1002EA00FCFDFEFF22E480F8A2D574FF13FC7D809A
:0302FA00E480EFAE
:03000000020A549D
:0C0A5400787FE4F6D8FD75812C02046D5B
:1002FD00BB010CE58229F582E5833AF583E02250B6
:10030D0006E92582F8E622BBFE06E92582F8E222FF
:0D031D00E58229F582E5833AF583E4932219
:10032A00EF8DF0A4A8F0CF8CF0A428CE8DF0A42EE7
:02033A00FE22A1
:10033C00BC000BBE0029EF8DF084FFADF022E4CCA5
:10034C00F875F008EF2FFFEE33FEEC33FCEE9DEC6E
:10035C00984005FCEE9DFE0FD5F0E9E4CEFD22EDB4
:10036C00F8F5F0EE8420D21CFEADF075F008EF2FFE
:10037C00FFED33FD4007985006D5F0F222C398FDEF
:05038C000FD5F0EA228C
:1003910075F008758200EF2FFFEE33FECD33CDCC23
:1003A10033CCC58233C5829BED9AEC99E5829840A6
:1003B1000CF582EE9BFEED9AFDEC99FC0FD5F0D683
:1003C100E4CEFBE4CDFAE4CCF9A88222B800C1B9AD
:1003D1000059BA002DEC8BF084CFCECDFCE5F0CBEB
:1003E100F97818EF2FFFEE33FEED33FDEC33FCEB24
:1003F10033FB10D703994004EB99FB0FD8E5E4F9DF
:10040100FA227818EF2FFFEE33FEED33FDEC33FCCB
:10041100C933C910D7059BE99A4007EC9BFCE99ABF
:10042100F90FD8E0E4C9FAE4CCFB2275F010EF2F04
:10043100FFEE33FEED33FDCC33CCC833C810D70704
:100441009BEC9AE899400AED9BFDEC9AFCE899F83F
:0E0451000FD5F0DAE4CDFBE4CCFAE4C8F922D2
:0E045F00C3E49FFFE49EFEE49DFDE49CFC22AE
:00000001FF
