:100AE4000F0A544F4F4C20424F5820425920484738
:010AF40045BC
:10092000120AD020B1FD7F147E00120ABB30B1FD47
:100930007F147E00120ABBE4F508F509D3E509949B
:100940000EE508940050DCAF09EF2402FD740A2F75
:10095000F8E6FB7F01120B0F7F2C7E01120ABB050C
:0909600009E50970D7050880D3F0
:060AF600C2A58F80D2A70B
:080AFC007F027EEFDEFEDFFC4D
:010B040022CE
:0A0B0500C2A6120AF6C2A7020AFCFB
:100A6A00CFCDCFCECCCE12083F7C007D0A12083FF4
:040A7A00ED2430FF38
:0A0A7E00D2A6120AF6C2A7020AFC73
:100AA500AE07BE0104ED148006BE0209ED243F44E5
:060AB50080FF120B052278
:100AD0007F38120B057F0C120B057F06120B057F6A
:040AE00001020B05FF
:0A0B0F00AC03120AA5AF04020A7E2F
:060A47008B338A3489356F
:100A4D00120AA5E4FDAB33AA34A9358D8275830056
:0C0A5D00120800FF6006120A7E0D80E9FE
:010A6900226A
:0C0A14007F0AEA24FFFDE434FFFC7E00B2
:080A20008E2F8F308C318D32D6
:100A28007F017E00E4FBEBC39532E5316480F87406
:0E0A38008098500AAC2FAD3012082D0B80E8CC
:010A4600228D
:040A88008A228B2310
:100A8C00120AA5AA24EAD39400400D120A14AC222F
:080A9C00AD23120A6A1A80ED75
:010AA400222F
:10096900120AA5C3EA64809480400B7F2B120A7E89
:100979008A1E8B1F800E7F2D120A7EC3E49BF51FF2
:10098900E49AF51EAA1DEAD39400400D120A14AC8C
:090999001EAD1F120A6A1A80ED5E
:0109A2002232
:0409A3008A278B28EC
:1009A700120AA5AA29EAD3940040297F10120A1631
:1009B700AC27AD28CFCDCFCECCCE12083FEF540F0A
:1009C700FEC3940AEE5004243080022437FF120A33
:0409D7007E1A80D133
:0109DB0022F9
:0409DC008A2C8B2DA9
:1009E000120AA5AA2EEAD394004028EA24FFFDE4C7
:1009F00034FFFC7F027E00120A20AC2CAD2DCFCD3F
:100A0000CFCECCCE12083FEF54012430FF120A7E25
:030A10001A80D277
:010A130022C0
:100ABB00EF1FAC0670011E4C600A7D027CEFDCFE62
:040ACB00DDFC80ECE2
:010ACF002204
:030000000208945F
:0C089400787FE4F6D8FD7581350208DBA2
:10080000BB010CE58229F582E5833AF583E02250AD
:1008100006E92582F8E622BBFE06E92582F8E222F7
:0D082000E58229F582E5833AF583E4932211
:10082D00EF8DF0A4A8F0CF8CF0A428CE8DF0A42EDF
:02083D00FE2299
:10083F00BC000BBE0029EF8DF084FFADF022E4CC9D
:10084F00F875F008EF2FFFEE33FEEC33FCEE9DEC66
:10085F00984005FCEE9DFE0FD5F0E9E4CEFD22EDAC
:10086F00F8F5F0EE8420D21CFEADF075F008EF2FF6
:10087F00FFED33FD4007985006D5F0F222C398FDE7
:05088F000FD5F0EA2284
:1008A000020920E493A3F8E493A34003F68001F245
:1008B00008DFF48029E493A3F85407240CC8C33359
:1008C000C4540F4420C8834004F456800146F6DF28
:1008D000E4800B0102040810204080900AE4E47ECA
:1008E000019360BCA3FF543F30E509541FFEE4931D
:1008F000A360010ECF54C025E060A840B8E493A3E4
:10090000FAE493A3F8E493A3C8C582C8CAC583CA0E
:10091000F0A3C8C582C8CAC583CADFE9DEE780BEC6
:010AF5000000
:00000001FF
