:100BF100EF1FAC0670011E4C600A7D027CEFDCFE2B
:040C0100DDFC80ECAA
:010C050022CC
:060C1A00C2A58F80D2A7E5
:080C20007F027EEFDEFEDFFC27
:010C280022A9
:0A0C3600C2A6120C1AC2A7020C207D
:100B4E00CFCDCFCECCCE1203317C007D0A12033135
:040B5E00ED2430FF53
:0A0B6200D2A6120C1AC2A7020C2042
:100B6C00AE07EEFB7A0064017004ED148009EB64AF
:0E0B7C00024A7009ED243F4480FF120C36221D
:100C06007F38120C367F0C120C367F06120C367F9C
:040C160001020C3695
:0A0C4000AC03120B6CAF04020B6250
:060AC6008B158A1689174A
:100ACC00120B6CE4FDAB15AA16A9178D8275830069
:0C0ADC001202F2FF6006120B620D80E9AE
:010AE80022EB
:0A0A2000EF24FFFDEE34FFFC7F0A17
:080A2A008E1C8F1D8C1E8D1F18
:100A32007F017E00E4FBEBC3951FE51E6480F87422
:0E0A42008098500AAC1CAD1D12031F0B80E8FB
:010A50002283
:040AA2008A178B180C
:100AA600120B6CAA19EAFF7E00D39400748094801E
:0F0AB600400D120A20AC17AD18120B4E1A80E635
:010AC500220E
:040999008B828A8340
:10099D00120B6CC3E58364809480400D7F2B120B8A
:1009AD006285831A85821B80107F2D120B62C3E432
:1009BD009582F51BE49583F51AAA19EAFF7E00D3FB
:1009CD00940074809480400D120A20AC1AAD1B1255
:0509DD000B4E1A80E63C
:0109E20022F2
:04094E008A228B234B
:10095200120B6CAA24EAD39400748094804037EA84
:1009620024FFFDE434FFFC7F107E00120A2AAC2231
:10097200AD23CFCDCFCECCCE120331EF540FFEC379
:10098200940A74809480EE5004243080022437FF4D
:06099200120B621A80BF87
:01099800223C
:0409E3008A278B28AC
:1009E700120B6CAA29EAFF7E00D3940074809480CE
:1009F7004026EF24FFFDEE34FFFC7F02120A2AACEB
:100A070027AD28CFCDCFCECCCE120331EF54012462
:080A170030FF120B621A80CDC2
:010A1F0022B4
:100B2D00543A0054483A00544C3A004F0053004F89
:100B3D00563A48004F563A4C0020202020202020C5
:010B4D0000A7
:030C5000010C0094
:10046200120C297FE87E03120BF1AF08EF3395E0FF
:10047200FED3EF947DEE64809480501FAF09EF337A
:1004820095E0FEC3EF94C9EE6480947F400DD3E5FE
:10049200096480F8E50864809850067508147509A7
:1004A2000F120C067BFF7A0B792D7D017F01120A58
:1004B200C67BFF7A0B79307D017F02120AC67BFF71
:1004C2007A0B79347D097F02120AC67BFF7A0B7997
:1004D200387D0B7F01120AC6E508FB3395E0FA75F9
:1004E20019037D047F02120999E509FB3395E0FAAD
:1004F2007519037D0C7F021209991206D88F0A1210
:1005020008ED8F0B120C29120A518F148E138D12C3
:100512008C11AF10AE0FAD0EAC0D120271AB07AA6B
:10052200067519037D047F01120AA27B2E7D077FC7
:1005320001120C40E4FFFE7DC87C42AB10AA0FA959
:100542000EA80D120003120271E47B64FAF9F8128C
:1005520003C27519027D087F01120AA2E4FFFEFDA3
:10056200FCAB14AA13A912A8111201A9501E7B2DCB
:100572007D037F01120C40AF14AE13AD12AC111209
:1005820002228F108E0F8D0E8C0D80157B2B7D031A
:100592007F01120C4085141085130F85120E8511F0
:1005A2000DE50A7003020635FF7E0064017017052F
:1005B20008AD08ED3395E0FCD3ED947DEC648094B6
:1005C20080400375087DEF64024E70111508D3E573
:1005D200096480F8E50864809850020508E50A6419
:1005E2000370110509C3E5086480F8E50964809881
:1005F20040021509E50A640470171509AF09EF33C3
:1006020095E0FEC3EF94C9EE6480947F50037509B0
:10061200C9E508FB3395E0FA7519037D047F0212E0
:100622000999E509FB3395E0FA7519037D0C7F0200
:10063200120999E50B603764017016F50C7BFF7A9D
:100642000B79387D0B7F01120AC67F327E00120BB6
:100652000BE50B64027017750C017BFF7A0B793A7C
:100662007D0B7F01120AC67F327E00120B0BAC0893
:10067200EC12023DAB14AA13A912A8111201A9602F
:10068200174015E50C70117BFF7A0B793C7D0D7FCD
:1006920001120AC67F2C8026AC09EC12023DAB1473
:1006A200AA13A912A8111201A9501BE50C70177BFD
:1006B200FF7A0B79417D0D7F01120AC67FF47E011C
:1006C200120B0B0204FC7BFF7A0B79467D0D7F0136
:0606D200120AC60204FC3E
:100B8A00C2AFD2B7C2B77FF7DFFED2B77F20DFFE90
:0D0B9A00A2B7E433FE7FF7DFFED2AFAF0657
:010BA700222B
:100BDB00C2B77E04C2AFDEFEEF24FF92B77E18DEF3
:050BEB00FED2B7D2AFFD
:010BF00022E2
:100BA800C2B77F02C2AFDFFED2B77F02DFFEA2B7B5
:0B0BB800E433FE7F18DFFED2AFAF0673
:010BC300220F
:020AE900AD0757
:100AEB00E4FCECC39408748094805013A804740144
:0F0AFB00088002C333D8FC5DFF120BDB0C80E3D5
:010B0A0022C8
:100A7C00E4FDFCECC39408748094805016120BA80F
:100A8C00EF600DA8047401088002C333D8FC420542
:050A9C000C80E0AF0535
:010AA1002232
:0D0C2900120B8A7FCC120AE97F44020AE90F
:100A5100120B8A7FCC120AE97FBE120AE9120A7CC4
:100A61008F15120A7CEFFEE515FFFDAC06EC1202B4
:0B0A710038E4FBFA7980784102010CA8
:1008ED00E4F51520B1137F14FE120BF130B1FD7F2D
:1008FD00147E00120BF175150120B0147F147E00CB
:10090D00120BF130B0FD7F147E00120BF175150244
:10091D0020B2147F147E00120BF130B2FD7F147ED5
:10092D0000120BF175150320B3147F147E00120B0A
:10093D00F130B3FD7F147E00120BF1751504AF1568
:01094D002287
:100BC4005389F0438901758A18758CFCC28DD28CC7
:070BD400D2A9D2AFC2B92281
:050C4A00007FF7DFFE52
:010C4F002282
:040B0B00AD07AC0680
:100B0F00E4FBFAED25E0FFEC33FEC3EB9FEA9E50CA
:0D0B1F000CB295120C4A0BBB00010A80E6D7
:010B2C0022A6
:1006D800E4F5157590FFC2932097137F14FE120B53
:1006E800F13097FD7F147E00120BF17515012096ED
:1006F800147F147E00120BF13096FD7F147E0012D9
:100708000BF17515052095147F147E00120BF1303E
:1007180095FD7F147E00120BF17515092094147F46
:10072800147E00120BF13094FD7F147E00120BF141
:1007380075150D7590FFC2922097147F147E0012D4
:100748000BF13097FD7F147E00120BF17515022016
:1007580096147F147E00120BF13096FD7F147E00F4
:10076800120BF17515062095147F147E00120BF1FB
:100778003095FD7F147E00120BF175150A20941434
:100788007F147E00120BF13094FD7F147E00120B53
:10079800F175150E7590FFC2912097147F147E0095
:1007A800120BF13097FD7F147E00120BF1751503C3
:1007B8002096147F147E00120BF13096FD7F147E74
:1007C80000120BF17515072095147F147E00120B8B
:1007D800F13095FD7F147E00120BF175150B2094F6
:1007E800147F147E00120BF13094FD7F147E0012EA
:1007F8000BF175150F7590FFC2902097147F147E2A
:1008080000120BF13097FD7F147E00120BF1751565
:10081800042096147F147E00120BF13096FD7F148D
:100828007E00120BF17515082095147F147E0012B6
:100838000BF13095FD7F147E00120BF175150C201D
:1008480094147F147E00120BF13094FD7F147E0007
:08085800120BF1751510AF152C
:010860002275
:10000300EC4D6011E8497017ED33EC3304600DE4F7
:10001300FCFFFEFD22E933E8330470F80202DD122F
:1000230002A858046009E4CC248150062850090230
:1000330002E72840030202E4C0E0EB4A7044B980BF
:1000430006D0E0FB0202D3EF4E701CBD8008EBFF2D
:10005300EAFEE9FD80EBE98DF0A4FEE5F00200EC99
:10006300E9CDF9EAFEEBFFEF89F0A4FCE5F0CE89D8
:10007300F0A42EFFE435F0CD89F0A42DFEE435F095
:100083008067EF4E7005BD80D780C3EF8BF0A4ACC3
:10009300F0EE8BF0A42CFCE435F0F8EF8AF0A42CFE
:1000A300E5F038FCE433CB8DF0A42CFCE5F03BF811
:1000B300EE8AF0A42CFCE5F038F8E433CF89F0A401
:1000C3002CFCE5F038CF3400CE89F0A42FFFE5F007
:1000D3003EFEE433C98DF0A42EFEE5F039CD8AF05F
:1000E300A42FFFE5F03EFEE43DFD33D0E0FB5007D7
:1000F3000BBB000F0202E7EC2CFCEF33FFEE33FEE9
:06010300ED33FD0202BF16
:100109000202E7EC5D046005E8590470030202DDB0
:100119001202A8580460F6EC4860F2EC7004FDFE87
:10012900FF22C860DB2481C85009C39860025006C9
:100139000202E49850CAF582E9294B4A7005AB825C
:100149000202D375F0007C1A7880C3EF9BEE9AED1A
:1001590099400DC3EF9BFFEE9AFEED99FDE842F041
:10016900DC23ACF0D0E0FFD0E0FED0E0FDAB822094
:10017900E7101BEB60BAEC2CFCEF33FFEE33FEED1E
:1001890033FD0202BFE803F830E705C0F075F0005F
:10019900EF2FFFEE33FEED33FD40B830E7C280AA02
:1001A90074F8CC6480CCC86480C8F58204604FC3FD
:1001B900EB9FF5F0EA9E42F0E99D42F0E89C45F09C
:1001C900603C501DE5825FFFE582D313CB5BCBF426
:1001D9002B5582FB50280ABA002409B9002008804F
:1001E9001DE5825BFBE582D313CF5FCFF4C3132FE9
:1001F9005582FF50090EBE00050DBD00010CC3EB71
:100209009FF5F0EA9E42F0E99D42F0E89C45F060D6
:0902190007CC4820E701B3EC22F8
:10022200ED33EC33600A047003BD8004ECB2E7FCEA
:0102320022A9
:1002330075F020800E75F010800575F0087D007E46
:10024300007F003392D530D503120454EC334010B1
:10025300EF33FFEE33FEED33FDEC33FCD5F0ED224F
:0E026300E5F0247EA2D513CC92E7CDCEFF228B
:10027100EDD2E7CD33EC3392D524814006E4FFFE85
:10028100FDFC22FCE4CFCECDCC24E0501174FF80E4
:10029100EDC3CC13CCCD13CDCE13CECF13CF047081
:0702A100F030D5DE02045429
:1002A800E9D2E7C933E833F892D5EDD2E7CD33EC9C
:0702B80033FC5002B2D52215
:1002BF00EC30E7100FBF000C0EBE00080DBD0004A0
:1002CF000BEB6014A2D5EB13FCED92E7FD2274FF4C
:1002DF00FCFDFEFF22E480F8A2D574FF13FC7D80A5
:0302EF00E480EFB9
:0300000002086192
:0C086100787FE4F6D8FD7581290208A814
:1002F200BB010CE58229F582E5833AF583E02250C1
:1003020006E92582F8E622BBFE06E92582F8E2220A
:0D031200E58229F582E5833AF583E4932224
:10031F00EF8DF0A4A8F0CF8CF0A428CE8DF0A42EF2
:02032F00FE22AC
:10033100BC000BBE0029EF8DF084FFADF022E4CCB0
:10034100F875F008EF2FFFEE33FEEC33FCEE9DEC79
:10035100984005FCEE9DFE0FD5F0E9E4CEFD22EDBF
:10036100F8F5F0EE8420D21CFEADF075F008EF2F09
:10037100FFED33FD4007985006D5F0F222C398FDFA
:050381000FD5F0EA2297
:1003860075F008758200EF2FFFEE33FECD33CDCC2E
:1003960033CCC58233C5829BED9AEC99E5829840B1
:1003A6000CF582EE9BFEED9AFDEC99FC0FD5F0D68E
:1003B600E4CEFBE4CDFAE4CCF9A88222B800C1B9B8
:1003C6000059BA002DEC8BF084CFCECDFCE5F0CBF6
:1003D600F97818EF2FFFEE33FEED33FDEC33FCEB2F
:1003E60033FB10D703994004EB99FB0FD8E5E4F9EA
:1003F600FA227818EF2FFFEE33FEED33FDEC33FCD7
:10040600C933C910D7059BE99A4007EC9BFCE99ACA
:10041600F90FD8E0E4C9FAE4CCFB2275F010EF2F0F
:10042600FFEE33FEED33FDCC33CCC833C810D7070F
:100436009BEC9AE899400AED9BFDEC9AFCE899F84A
:0E0446000FD5F0DAE4CDFBE4CCFAE4C8F922DD
:0E045400C3E49FFFE49EFEE49DFDE49CFC22B9
:10086D00020462E493A3F8E493A34003F68001F23B
:10087D0008DFF48029E493A3F85407240CC8C3338C
:10088D00C4540F4420C8834004F456800146F6DF5B
:10089D00E4800B0102040810204080900C50E47E8F
:1008AD00019360BCA3FF543F30E509541FFEE49350
:1008BD00A360010ECF54C025E060A840B8E493A317
:1008CD00FAE493A3F8E493A3C8C582C8CAC583CA42
:1008DD00F0A3C8C582C8CAC583CADFE9DEE780BEFA
:010C530000A0
:00000001FF
