:100D5F0020202D20202D20200020203A20203A2056
:020D6F00200062
:100A9700120D80120D4B7BFF7A0D795F7D017F016F
:100AA700120CC27BFF7A0D79687D017F02120CC29E
:100AB70012080012097EE518FB7A00750C027D0109
:100AC7007F01120D03E519FB7A00750C027D047F87
:100AD70001120D03E51AFB7A00750C027D077F01F1
:100AE700120D03E51BFB7A00750C027D017F0212D4
:100AF7000D03E51CFB7A00750C027D047F02120DC5
:100B070003E51DFB7A00750C027D077F02120D03BA
:020B170080A1BB
:060D7100C2A58F80D2A78D
:080D77007F027EEFDEFEDFFCCF
:010D7F002251
:0A0D8C00C2A6120D71C2A7020D7776
:100CE500CFCDCFCECCCE1209297C007D0A120929A1
:040CF500ED2430FFBB
:0A0CF900D2A6120D71C2A7020D77FA
:100D2000AE07BE0104ED148006BE0209ED243F4467
:060D300080FF120D8C2271
:100D4B007F38120D8C7F0C120D8C7F06120D8C7F51
:040D5B0001020D8CF8
:0A0D9600AC03120D20AF04020CF9AB
:060CC2008B088A09890A73
:100CC800120D20E4FDAB08AA09A90A8D82758300DC
:0C0CD8001208EAFF6006120CF90D80E91A
:010CE40022ED
:0C0C8F007F0AEA24FFFDE434FFFC7E0035
:080C9B008E0D8F0E8C0F8D10E1
:100CA3007F017E00E4FBEBC39510E50F6480F874CD
:0E0CB3008098500AAC0DAD0E1209170B80E8A8
:010CC1002210
:040D03008A0A8B0BC2
:100D0700120D20AA0CEAD39400400D120C8FAC0AE6
:080D1700AD0B120CE51A80ED92
:010D1F0022B1
:100BE400120D20C3EA64809480400B7F2B120CF911
:100BF4008A168B17800E7F2D120CF9C3E49BF51710
:100C0400E49AF516AA15EAD39400400D120C8FACA1
:090C140016AD17120CE51A80ED73
:010C1D0022B4
:040C1E008A218B227A
:100C2200120D20AA23EAD3940040297F10120C91BE
:100C3200AC21AD22CFCDCFCECCCE120929EF540FAD
:100C4200FEC3940AEE5004243080022437FF120CB3
:040C5200F91A80D13A
:010C5600227B
:040C57008A268B2737
:100C5B00120D20AA28EAD394004028EA24FFFDE4D1
:100C6B0034FFFC7F027E00120C9BAC26AD27CFCD50
:100C7B00CFCECCCE120929EF54012430FF120CF940
:030C8B001A80D2FA
:010C8E002243
:090DA00007181408190A013702B2
:060B190025F0FDEC3EFC9E
:060B1F008C088D09A907F6
:100B2500D2B5E4FBFAAF0374017E00A8070880057F
:100B3500C333CE33CED8F9FFE9FDEF5D24FF92B480
:100B4500D2B6C2B60BBB00010AEB64084A70D6E404
:100B5500FAFBAF0374017E00A807088005C333CEF6
:100B650033CED8F9FFE5085EFEE5095F4E24FF9216
:100B7500B4D2B6C2B60BBB00010AEB64084A70D208
:020B8500C2B5F7
:010B8700224B
:0C0D8000C2B5C2B6E4FDFC7F8E020B1F62
:020B88008F08D4
:100B8A00E4F9D2B5FBFAAF0374017E00A807088026
:100B9A0005C333CE33CED8F9FFEF550824FF92B4FC
:100BAA00C2B6D2B60BBB00010AEB64084A70D7E49E
:100BBA00FAFBD2B6C2B630B40FAF037401A8070865
:100BCA008002C333D8FC42010BBB00010AEB640864
:090BDA004A70DFC2B5C2B4AF01DC
:010BE30022EF
:10080000E4FDFC7F8E120B1FE51875F00A8475F06D
:1008100010A4FFAEF0E51875F00A84EF7F8C120B80
:1008200019E51975F00A8475F010A4FFAEF0E5190A
:1008300075F00A847C00EF7F88120B19E51A75F0B9
:100840000A8475F010A4FFAEF0E51A75F00A847CF6
:1008500000EF25F0FDEC3EFC7F86120B1FE51B75BB
:10086000F00A8475F010A4FFAEF0E51B75F00A8461
:100870007C00EF25F0FDEC3EFC7F84120B1FE51C95
:1008800075F00A8475F010A4FFAEF0E51C75F00A4F
:10089000847C00EF25F0FDEC3EFC7F82120B1FE50F
:1008A0001D75F00A8475F010A4FFAEF0E51D75F01B
:1008B0000A847C00EF25F0FDEC3EFC7F80120B1FCC
:1008C000E51E75F00A8475F010A4FFAEF0E51E7504
:1008D000F00A847C00EF25F0FDEC3EFC7F8A120BD1
:0A08E0001F7D807C007F8E020B1F3D
:10097E007F8D120B88EFC4540F75F00AA4FEEF544E
:10098E000F2EF5187F89120B88EFC4540F75F00ADD
:10099E00A4FEEF540F2EF5197F87120B88EFC45467
:1009AE000F75F00AA4FEEF540F2EF51A7F85120B69
:1009BE0088EFC4540F75F00AA4FEEF540F2EF51BEA
:1009CE007F83120B88EFC4540F75F00AA4FEEF5408
:1009DE000F2EF51C7F81120B88EFC4540F75F00A91
:1009EE00A4FEEF540F2EF51D7F8B120B88EFC4540F
:0C09FE000F75F00AA4FEEF540F2EF51E3A
:010A0A0022C9
:100D3600EF1FAC0670011E4C600A7D027CEFDCFEE4
:040D4600DDFC80EC64
:010D4A002286
:03000000020A0BE6
:0C0A0B00787FE4F6D8FD758128020A52BD
:1008EA00BB010CE58229F582E5833AF583E02250C3
:1008FA0006E92582F8E622BBFE06E92582F8E2220D
:0D090A00E58229F582E5833AF583E4932226
:10091700EF8DF0A4A8F0CF8CF0A428CE8DF0A42EF4
:02092700FE22AE
:10092900BC000BBE0029EF8DF084FFADF022E4CCB2
:10093900F875F008EF2FFFEE33FEEC33FCEE9DEC7B
:10094900984005FCEE9DFE0FD5F0E9E4CEFD22EDC1
:10095900F8F5F0EE8420D21CFEADF075F008EF2F0B
:10096900FFED33FD4007985006D5F0F222C398FDFC
:050979000FD5F0EA2299
:100A1700020A97E493A3F8E493A34003F68001F254
:100A270008DFF48029E493A3F85407240CC8C333E0
:100A3700C4540F4420C8834004F456800146F6DFAF
:100A4700E4800B0102040810204080900DA0E47E92
:100A5700019360BCA3FF543F30E509541FFEE493A4
:100A6700A360010ECF54C025E060A840B8E493A36B
:100A7700FAE493A3F8E493A3C8C582C8CAC583CA96
:100A8700F0A3C8C582C8CAC583CADFE9DEE780BE4E
:010DA9000049
:00000001FF
