:10017600E4F50820B1137F14FE1203DD30B1FD7FD4
:10018600147E001203DD75080120B0147F147E0072
:100196001203DD30B0FD7F147E001203DD75080208
:1001A60020B2147F147E001203DD30B2FD7F147E70
:1001B600001203DD75080320B3147F147E001203BA
:1001C600DD30B3FD7F147E001203DD750804AF0831
:0101D6002206
:06040600C2A58F80D2A701
:08040C007F027EEFDEFEDFFC43
:0104140022C5
:0A042D00C2A6120406C2A702040CC6
:10035500CFCDCFCECCCE1201217C007D0A1201215A
:04036500ED2430FF54
:0A036900D2A6120406C2A702040C7B
:1003C700AE07BE0104ED148006BE0209ED243F44CA
:0603D70080FF12042D223C
:1003F2007F3812042D7F0C12042D7F0612042D7FEC
:040402000102042DC2
:0A043700AC031203C7AF040203690F
:060332008B088A09890A0C
:100338001203C7E4FDAB08AA09A90A8D82758300D8
:0C0348001200E2FF60061203690D80E95C
:010354002286
:0C0282007F0AEA24FFFDE434FFFC7E004C
:08028E008E0D8F0E8C0F8D10F8
:100296007F017E00E4FBEBC39510E50F6480F874E4
:0E02A6008098500AAC0DAD0E12010F0B80E8CF
:0102B4002227
:040373008A0A8B0B5C
:100377001203C7AA0CEAD39400400D120282AC0AFA
:08038700AD0B1203551A80EDC5
:01038F00224B
:1001D7001203C7C3EA64809480400B7F2B12036924
:1001E7008A168B17800E7F2D120369C3E49BF517C0
:1001F700E49AF516AA15EAD39400400D120282ACD0
:0902070016AD171203551A80ED23
:0102100022CB
:040211008A1A8B1B9F
:100215001203C7AA1CEAD3940040297F1012028456
:10022500AC1AAD1BCFCDCFCECCCE120121EF540FE2
:10023500FEC3940AEE5004243080022437FF1203D3
:04024500691A80D1E1
:010249002292
:04024A008A1F8B205C
:10024E001203C7AA21EAD394004028EA24FFFDE452
:10025E0034FFFC7F027E0012028EAC1FAD20CFCD8C
:10026E00CFCECCCE120121EF54012430FF12036900
:03027E001A80D211
:01028100225A
:1003DD00EF1FAC0670011E4C600A7D027CEFDCFE47
:0403ED00DDFC80ECC7
:0103F10022E9
:1003AD005752495445204F4B00202020202020201B
:0A03BD00200052454144204F4B0040
:100003001203F2750C05AB24AA237D017F011203B1
:10001300731201768F22E522B401150524E52470BD
:10002300020523750C05FBAA237D017F01120373CF
:10003300E522B40216E524152470021523750C0578
:10004300AB24AA237D017F01120373E522640370AD
:1000530040FCAD24FF12030E7F057E001203DDE595
:1000630023FD7C007F0112030E7F057E001203DD5A
:100073007BFF7A0379AD7D017F021203327FE87E35
:10008300031203DD7BFF7A0379B67D017F0212033E
:1000930032E52264046003020014FF1202B57523E3
:1000A300008F247F011202B5EFFEEE4223750C058B
:1000B300AB24AA237D017F011203737BFF7A0379AB
:1000C300BF7D017F021203327FE87E031203DD7BD3
:0F00D300FF7A0379B67D017F0212033202001417
:10030E008F088C098D0A12044B7FA01202E512048D
:10031E0015AF081202E5120415AF0A1202E5120417
:04032E00150204545C
:0202B5008F08B0
:1002B70012044B7FA01202E5120415AF081202E5E3
:1002C70012041512044B7FA11202E5120415120342
:0D02D700908F097F01120441120454AF09F9
:0102E40022F7
:09044B00D2A0D2A1C2A0C2A122DC
:07045400C2A0D2A1D2A02238
:0202E500AD0763
:1002E700E4FB74807E00A803088006CEA2E713CE45
:1002F70013D8F8FFEDF582EF558224FF92A0D2A123
:06030700C2A10BBB08DCE3
:01030D0022CD
:10039000D2A0E4FED2A130A00D7480A8060880028D
:0C03A000C313D8FC4207C2A10EBE08E83F
:0103AC00222E
:0A044100EF24FF92A0D2A1C2A12275
:0B041500D2A0D2A1A2A0E433FFC2A13C
:0104200022B9
:03000000020421D6
:0C042100787FE4F6D8FD7581240200030A
:1000E200BB010CE58229F582E5833AF583E02250D3
:1000F20006E92582F8E622BBFE06E92582F8E2221D
:0D010200E58229F582E5833AF583E4932236
:10010F00EF8DF0A4A8F0CF8CF0A428CE8DF0A42E04
:02011F00FE22BE
:10012100BC000BBE0029EF8DF084FFADF022E4CCC2
:10013100F875F008EF2FFFEE33FEEC33FCEE9DEC8B
:10014100984005FCEE9DFE0FD5F0E9E4CEFD22EDD1
:10015100F8F5F0EE8420D21CFEADF075F008EF2F1B
:10016100FFED33FD4007985006D5F0F222C398FD0C
:050171000FD5F0EA22A9
:00000001FF
